{
  "contractName": "Medipedia",
  "abi": [
    {
      "constant": true,
      "inputs": [],
      "name": "owner",
      "outputs": [
        {
          "name": "",
          "type": "address"
        }
      ],
      "payable": false,
      "stateMutability": "view",
      "type": "function"
    },
    {
      "inputs": [],
      "payable": false,
      "stateMutability": "nonpayable",
      "type": "constructor"
    },
    {
      "anonymous": false,
      "inputs": [
        {
          "indexed": false,
          "name": "userAddress",
          "type": "address"
        },
        {
          "indexed": false,
          "name": "messageRequestHash",
          "type": "string"
        }
      ],
      "name": "addMessageRequestEvent",
      "type": "event"
    },
    {
      "anonymous": false,
      "inputs": [
        {
          "indexed": false,
          "name": "userAddress",
          "type": "address"
        },
        {
          "indexed": false,
          "name": "replyHash",
          "type": "string"
        }
      ],
      "name": "addMessageReplyEvent",
      "type": "event"
    },
    {
      "constant": false,
      "inputs": [
        {
          "name": "userAddress",
          "type": "address"
        },
        {
          "name": "msgRequestHash",
          "type": "string"
        },
        {
          "name": "repHash",
          "type": "string"
        }
      ],
      "name": "addMessage",
      "outputs": [],
      "payable": false,
      "stateMutability": "nonpayable",
      "type": "function"
    },
    {
      "constant": true,
      "inputs": [
        {
          "name": "userAddress",
          "type": "address"
        }
      ],
      "name": "getNoOfMsgs",
      "outputs": [
        {
          "name": "",
          "type": "uint256"
        }
      ],
      "payable": false,
      "stateMutability": "view",
      "type": "function"
    },
    {
      "constant": true,
      "inputs": [
        {
          "name": "userAddress",
          "type": "address"
        },
        {
          "name": "id",
          "type": "uint256"
        }
      ],
      "name": "getMessageCommunicationHash",
      "outputs": [
        {
          "name": "",
          "type": "string"
        }
      ],
      "payable": false,
      "stateMutability": "view",
      "type": "function"
    },
    {
      "constant": true,
      "inputs": [
        {
          "name": "userAddress",
          "type": "address"
        },
        {
          "name": "id",
          "type": "uint256"
        }
      ],
      "name": "getMessageRequestHash",
      "outputs": [
        {
          "name": "",
          "type": "string"
        }
      ],
      "payable": false,
      "stateMutability": "view",
      "type": "function"
    },
    {
      "constant": false,
      "inputs": [
        {
          "name": "userAddress",
          "type": "address"
        },
        {
          "name": "status",
          "type": "uint256"
        }
      ],
      "name": "setUserStatus",
      "outputs": [],
      "payable": false,
      "stateMutability": "nonpayable",
      "type": "function"
    },
    {
      "constant": false,
      "inputs": [],
      "name": "kill",
      "outputs": [],
      "payable": false,
      "stateMutability": "nonpayable",
      "type": "function"
    }
  ],
  "bytecode": "0x608060405234801561001057600080fd5b50336000806101000a81548173ffffffffffffffffffffffffffffffffffffffff021916908373ffffffffffffffffffffffffffffffffffffffff160217905550610e53806100606000396000f300608060405260043610610083576000357c0100000000000000000000000000000000000000000000000000000000900463ffffffff16806341c0e1b5146100885780638da5cb5b1461009f5780638e86d030146100f6578063b0f11234146101bc578063c3685e8914610282578063c7ed1e8614610351578063f71cc3a5146103a8575b600080fd5b34801561009457600080fd5b5061009d6103f5565b005b3480156100ab57600080fd5b506100b46104e1565b604051808273ffffffffffffffffffffffffffffffffffffffff1673ffffffffffffffffffffffffffffffffffffffff16815260200191505060405180910390f35b34801561010257600080fd5b50610141600480360381019080803573ffffffffffffffffffffffffffffffffffffffff16906020019092919080359060200190929190505050610506565b6040518080602001828103825283818151815260200191508051906020019080838360005b83811015610181578082015181840152602081019050610166565b50505050905090810190601f1680156101ae5780820380516001836020036101000a031916815260200191505b509250505060405180910390f35b3480156101c857600080fd5b50610207600480360381019080803573ffffffffffffffffffffffffffffffffffffffff1690602001909291908035906020019092919050505061060f565b6040518080602001828103825283818151815260200191508051906020019080838360005b8381101561024757808201518184015260208101905061022c565b50505050905090810190601f1680156102745780820380516001836020036101000a031916815260200191505b509250505060405180910390f35b34801561028e57600080fd5b5061034f600480360381019080803573ffffffffffffffffffffffffffffffffffffffff169060200190929190803590602001908201803590602001908080601f0160208091040260200160405190810160405280939291908181526020018383808284378201915050505050509192919290803590602001908201803590602001908080601f0160208091040260200160405190810160405280939291908181526020018383808284378201915050505050509192919290505050610754565b005b34801561035d57600080fd5b50610392600480360381019080803573ffffffffffffffffffffffffffffffffffffffff169060200190929190505050610bf1565b6040518082815260200191505060405180910390f35b3480156103b457600080fd5b506103f3600480360381019080803573ffffffffffffffffffffffffffffffffffffffff16906020019092919080359060200190929190505050610c3d565b005b6000809054906101000a900473ffffffffffffffffffffffffffffffffffffffff1673ffffffffffffffffffffffffffffffffffffffff163373ffffffffffffffffffffffffffffffffffffffff1614151561045057600080fd5b6000809054906101000a900473ffffffffffffffffffffffffffffffffffffffff1673ffffffffffffffffffffffffffffffffffffffff163373ffffffffffffffffffffffffffffffffffffffff1614156104df576000809054906101000a900473ffffffffffffffffffffffffffffffffffffffff1673ffffffffffffffffffffffffffffffffffffffff16ff5b565b6000809054906101000a900473ffffffffffffffffffffffffffffffffffffffff1681565b60606000600160008573ffffffffffffffffffffffffffffffffffffffff1673ffffffffffffffffffffffffffffffffffffffff1681526020019081526020016000209050806001840381548110151561055c57fe5b90600052602060002090600302016001018054600181600116156101000203166002900480601f0160208091040260200160405190810160405280929190818152602001828054600181600116156101000203166002900480156106015780601f106105d657610100808354040283529160200191610601565b820191906000526020600020905b8154815290600101906020018083116105e457829003601f168201915b505050505091505092915050565b6060600080600160008673ffffffffffffffffffffffffffffffffffffffff1673ffffffffffffffffffffffffffffffffffffffff1681526020019081526020016000209150816001850381548110151561066657fe5b9060005260206000209060030201600201905060008180546001816001161561010002031660029004905014156106af576020604051908101604052806000815250925061074c565b808054600181600116156101000203166002900480601f0160208091040260200160405190810160405280929190818152602001828054600181600116156101000203166002900480156107445780601f1061071957610100808354040283529160200191610744565b820191906000526020600020905b81548152906001019060200180831161072757829003601f168201915b505050505092505b505092915050565b60008061075f610ce0565b6000806000600160008a73ffffffffffffffffffffffffffffffffffffffff1673ffffffffffffffffffffffffffffffffffffffff16815260200190815260200160002095508580549050945060008514156109225760018501925060606040519081016040528084815260200189815260200188815250935085849080600181540180825580915050906001820390600052602060002090600302016000909192909190915060008201518160000155602082015181600101908051906020019061082c929190610d02565b506040820151816002019080519060200190610849929190610d02565b505050507f88a47eb83c6edf2a419647673286d3a4ac79b7db8f6d7be32d164cf24956e1ba8989604051808373ffffffffffffffffffffffffffffffffffffffff1673ffffffffffffffffffffffffffffffffffffffff16815260200180602001828103825283818151815260200191508051906020019080838360005b838110156108e25780820151818401526020810190506108c7565b50505050905090810190601f16801561090f5780820380516001836020036101000a031916815260200191505b50935050505060405180910390a1610be6565b60009150600090505b84811015610a7557876040518082805190602001908083835b6020831015156109695780518252602082019150602081019050602083039250610944565b6001836020036101000a03801982511681845116808217855250505050505090500191505060405180910390206000191686828154811015156109a857fe5b90600052602060002090600302016001016040518082805460018160011615610100020316600290048015610a145780601f106109f2576101008083540402835291820191610a14565b820191906000526020600020905b815481529060010190602001808311610a00575b50509150506040518091039020600019161415610a6857868682815481101515610a3a57fe5b90600052602060002090600302016002019080519060200190610a5e929190610d82565b5060019150610a75565b808060010191505061092b565b811515610b1557600185019250606060405190810160405280848152602001898152602001888152509350858490806001815401808255809150509060018203906000526020600020906003020160009091929091909150600082015181600001556020820151816001019080519060200190610af3929190610d02565b506040820151816002019080519060200190610b10929190610d02565b505050505b7f3d7a2575d2a8467ed0f2607e3259175522a764a8aa9e83b0410aec1cf69678028988604051808373ffffffffffffffffffffffffffffffffffffffff1673ffffffffffffffffffffffffffffffffffffffff16815260200180602001828103825283818151815260200191508051906020019080838360005b83811015610baa578082015181840152602081019050610b8f565b50505050905090810190601f168015610bd75780820380516001836020036101000a031916815260200191505b50935050505060405180910390a15b505050505050505050565b6000600160008373ffffffffffffffffffffffffffffffffffffffff1673ffffffffffffffffffffffffffffffffffffffff168152602001908152602001600020805490509050919050565b6000809054906101000a900473ffffffffffffffffffffffffffffffffffffffff1673ffffffffffffffffffffffffffffffffffffffff163373ffffffffffffffffffffffffffffffffffffffff16141515610c9857600080fd5b80600260008473ffffffffffffffffffffffffffffffffffffffff1673ffffffffffffffffffffffffffffffffffffffff168152602001908152602001600020819055505050565b6060604051908101604052806000815260200160608152602001606081525090565b828054600181600116156101000203166002900490600052602060002090601f016020900481019282601f10610d4357805160ff1916838001178555610d71565b82800160010185558215610d71579182015b82811115610d70578251825591602001919060010190610d55565b5b509050610d7e9190610e02565b5090565b828054600181600116156101000203166002900490600052602060002090601f016020900481019282601f10610dc357805160ff1916838001178555610df1565b82800160010185558215610df1579182015b82811115610df0578251825591602001919060010190610dd5565b5b509050610dfe9190610e02565b5090565b610e2491905b80821115610e20576000816000905550600101610e08565b5090565b905600a165627a7a723058209372e266c28ebdaafc451cde0c0c6a8bd3cf7d12a2792e9ff5193959c44819fc0029",
  "source": "pragma solidity ^0.4.24;\n\n/**\n    Medipedia Limited\n */\ncontract Medipedia {\n    address public owner;\n    \n    constructor() public{\n        owner = msg.sender;\n    }\n    \n    modifier restricted() {\n        require(msg.sender == owner);\n        _;\n    }\n    \n    event addMessageRequestEvent(address userAddress, string messageRequestHash);\n    event addMessageReplyEvent(address userAddress, string replyHash);\n    //event userStatusUpdated(address, uint);\n    /**\n        Message holds the encrypted hash of Medical Request\n        raised by patients and encrypted hash of replies \n        from matching Medical Service Providers.\n     */\n    struct Message{\n        uint id;\n        string messageRequestHash;\n        string replyHash;\n    }\n\n    /**\n        Each message communication will be held by an user.\n        An user is medical servicer provider or patient.\n     */\n    mapping (address => Message[]) messages;\n    \n    /**\n     * userStatus makes sure that information will be updated \n     * only authorized Consumers and Medical Providers.\n     * userStatus is active if it is 1 other 0 as deactivated account.\n    */\n    \n    mapping (address => uint) userStatus;\n\n    /**\n        addMessage adds medical request and replies to Struct\n        data structure. It is only accessible to authorized users.\n     */\n    function addMessage(address userAddress, string msgRequestHash, string repHash) public {\n        \n        //require(userStatus[userAddress] == 1);\n        \n        Message[] storage msgs = messages[userAddress];\n\n        uint arrayLength = msgs.length;\n        Message memory message;\n        if(arrayLength == 0){\n            uint id = arrayLength + 1;\n            message = Message(id, msgRequestHash, repHash);\n            msgs.push(message);\n            emit addMessageRequestEvent(userAddress, msgRequestHash);\n        }else{\n            bool isMsgAvailable = false;\n            for (uint i = 0; i<arrayLength; i++) {\n\n                if(keccak256(msgs[i].messageRequestHash) == keccak256(msgRequestHash)){\n                    msgs[i].replyHash = repHash;\n                    isMsgAvailable = true;\n                    break;\n                }\n            }\n            if(!isMsgAvailable){\n                id = arrayLength + 1;\n                message = Message(id, msgRequestHash, repHash);\n                msgs.push(message);\n            }\n            emit addMessageReplyEvent(userAddress, repHash);\n        }\n\n    }\n\n    /**\n        getNoOfMsgs returns number of message communications.\n     */\n    function getNoOfMsgs(address userAddress) public view returns(uint){\n        return messages[userAddress].length;\n    }\n\n    /**\n        getMessageCommunicationHash returns all communications between an user\n        and a provider.\n     */\n    function getMessageCommunicationHash(address userAddress, uint id) public view returns(string){\n        Message[] storage msgs = messages[userAddress];\n        string storage msgHash = msgs[id-1].replyHash;\n\n        if(bytes(msgHash).length == 0){\n            return \"\";\n        }\n\n        return msgHash;\n    }\n    /**\n        getMessageRequestHash returns a medical request\n     */\n    function getMessageRequestHash(address userAddress, uint id) public view returns(string){\n        Message[] storage msgs = messages[userAddress];\n        return msgs[id-1].messageRequestHash;\n    }\n    \n    function setUserStatus(address userAddress, uint status) public restricted{\n        userStatus[userAddress] = status;\n        //emit userStatusUpdated(userAddress, status);\n    }\n    \n    function kill() public restricted{\n        if (msg.sender == owner) selfdestruct(owner);\n    }\n\n}",
  "sourcePath": "/Users/lingrajmahanand/medipedia/medi-react/contracts/Medipedia.sol",
  "compiler": {
    "name": "solc",
    "version": "0.4.24+commit.e67f0147.Emscripten.clang"
  },
  "schemaVersion": "2.0.0",
  "updatedAt": "2018-06-07T11:11:14.598Z"
}